{
  "_format": "hh-sol-artifact-1",
  "contractName": "MyNFT",
  "sourceName": "contracts/MyNFT.sol",
  "abi": [
    {
      "inputs": [],
      "stateMutability": "nonpayable",
      "type": "constructor"
    },
    {
      "anonymous": false,
      "inputs": [
        {
          "indexed": true,
          "internalType": "address",
          "name": "owner",
          "type": "address"
        },
        {
          "indexed": true,
          "internalType": "address",
          "name": "approved",
          "type": "address"
        },
        {
          "indexed": true,
          "internalType": "uint256",
          "name": "tokenId",
          "type": "uint256"
        }
      ],
      "name": "Approval",
      "type": "event"
    },
    {
      "anonymous": false,
      "inputs": [
        {
          "indexed": true,
          "internalType": "address",
          "name": "owner",
          "type": "address"
        },
        {
          "indexed": true,
          "internalType": "address",
          "name": "operator",
          "type": "address"
        },
        {
          "indexed": false,
          "internalType": "bool",
          "name": "approved",
          "type": "bool"
        }
      ],
      "name": "ApprovalForAll",
      "type": "event"
    },
    {
      "anonymous": false,
      "inputs": [
        {
          "indexed": true,
          "internalType": "address",
          "name": "from",
          "type": "address"
        },
        {
          "indexed": true,
          "internalType": "address",
          "name": "to",
          "type": "address"
        },
        {
          "indexed": true,
          "internalType": "uint256",
          "name": "tokenId",
          "type": "uint256"
        }
      ],
      "name": "Transfer",
      "type": "event"
    },
    {
      "inputs": [
        {
          "internalType": "address",
          "name": "to",
          "type": "address"
        },
        {
          "internalType": "uint256",
          "name": "tokenId",
          "type": "uint256"
        }
      ],
      "name": "approve",
      "outputs": [],
      "stateMutability": "nonpayable",
      "type": "function"
    },
    {
      "inputs": [
        {
          "internalType": "address",
          "name": "owner",
          "type": "address"
        }
      ],
      "name": "balanceOf",
      "outputs": [
        {
          "internalType": "uint256",
          "name": "",
          "type": "uint256"
        }
      ],
      "stateMutability": "view",
      "type": "function"
    },
    {
      "inputs": [
        {
          "internalType": "uint256",
          "name": "tokenId",
          "type": "uint256"
        }
      ],
      "name": "getApproved",
      "outputs": [
        {
          "internalType": "address",
          "name": "",
          "type": "address"
        }
      ],
      "stateMutability": "view",
      "type": "function"
    },
    {
      "inputs": [
        {
          "internalType": "address",
          "name": "_nft",
          "type": "address"
        }
      ],
      "name": "getLatestTokenId",
      "outputs": [
        {
          "internalType": "uint256",
          "name": "",
          "type": "uint256"
        }
      ],
      "stateMutability": "nonpayable",
      "type": "function"
    },
    {
      "inputs": [
        {
          "internalType": "address",
          "name": "owner",
          "type": "address"
        },
        {
          "internalType": "address",
          "name": "operator",
          "type": "address"
        }
      ],
      "name": "isApprovedForAll",
      "outputs": [
        {
          "internalType": "bool",
          "name": "",
          "type": "bool"
        }
      ],
      "stateMutability": "view",
      "type": "function"
    },
    {
      "inputs": [
        {
          "internalType": "address",
          "name": "to",
          "type": "address"
        }
      ],
      "name": "mint",
      "outputs": [
        {
          "internalType": "uint256",
          "name": "",
          "type": "uint256"
        }
      ],
      "stateMutability": "nonpayable",
      "type": "function"
    },
    {
      "inputs": [],
      "name": "name",
      "outputs": [
        {
          "internalType": "string",
          "name": "",
          "type": "string"
        }
      ],
      "stateMutability": "view",
      "type": "function"
    },
    {
      "inputs": [
        {
          "internalType": "uint256",
          "name": "tokenId",
          "type": "uint256"
        }
      ],
      "name": "ownerOf",
      "outputs": [
        {
          "internalType": "address",
          "name": "",
          "type": "address"
        }
      ],
      "stateMutability": "view",
      "type": "function"
    },
    {
      "inputs": [
        {
          "internalType": "address",
          "name": "from",
          "type": "address"
        },
        {
          "internalType": "address",
          "name": "to",
          "type": "address"
        },
        {
          "internalType": "uint256",
          "name": "tokenId",
          "type": "uint256"
        }
      ],
      "name": "safeTransferFrom",
      "outputs": [],
      "stateMutability": "nonpayable",
      "type": "function"
    },
    {
      "inputs": [
        {
          "internalType": "address",
          "name": "from",
          "type": "address"
        },
        {
          "internalType": "address",
          "name": "to",
          "type": "address"
        },
        {
          "internalType": "uint256",
          "name": "tokenId",
          "type": "uint256"
        },
        {
          "internalType": "bytes",
          "name": "data",
          "type": "bytes"
        }
      ],
      "name": "safeTransferFrom",
      "outputs": [],
      "stateMutability": "nonpayable",
      "type": "function"
    },
    {
      "inputs": [
        {
          "internalType": "address",
          "name": "operator",
          "type": "address"
        },
        {
          "internalType": "bool",
          "name": "approved",
          "type": "bool"
        }
      ],
      "name": "setApprovalForAll",
      "outputs": [],
      "stateMutability": "nonpayable",
      "type": "function"
    },
    {
      "inputs": [
        {
          "internalType": "bytes4",
          "name": "interfaceId",
          "type": "bytes4"
        }
      ],
      "name": "supportsInterface",
      "outputs": [
        {
          "internalType": "bool",
          "name": "",
          "type": "bool"
        }
      ],
      "stateMutability": "view",
      "type": "function"
    },
    {
      "inputs": [],
      "name": "symbol",
      "outputs": [
        {
          "internalType": "string",
          "name": "",
          "type": "string"
        }
      ],
      "stateMutability": "view",
      "type": "function"
    },
    {
      "inputs": [
        {
          "internalType": "uint256",
          "name": "tokenId",
          "type": "uint256"
        }
      ],
      "name": "tokenURI",
      "outputs": [
        {
          "internalType": "string",
          "name": "",
          "type": "string"
        }
      ],
      "stateMutability": "view",
      "type": "function"
    },
    {
      "inputs": [
        {
          "internalType": "address",
          "name": "to",
          "type": "address"
        },
        {
          "internalType": "uint256",
          "name": "tokenId",
          "type": "uint256"
        }
      ],
      "name": "transfer",
      "outputs": [],
      "stateMutability": "nonpayable",
      "type": "function"
    },
    {
      "inputs": [
        {
          "internalType": "address",
          "name": "from",
          "type": "address"
        },
        {
          "internalType": "address",
          "name": "to",
          "type": "address"
        },
        {
          "internalType": "uint256",
          "name": "tokenId",
          "type": "uint256"
        }
      ],
      "name": "transferFrom",
      "outputs": [],
      "stateMutability": "nonpayable",
      "type": "function"
    }
  ],
  "bytecode": "0x60806040523480156200001157600080fd5b506040518060400160405280601181526020017f446563656e7472616c697a6564436861740000000000000000000000000000008152506040518060400160405280600281526020017f4443000000000000000000000000000000000000000000000000000000000000815250816000908051906020019062000096929190620000b8565b508060019080519060200190620000af929190620000b8565b505050620001cd565b828054620000c69062000197565b90600052602060002090601f016020900481019282620000ea576000855562000136565b82601f106200010557805160ff191683800117855562000136565b8280016001018555821562000136579182015b828111156200013557825182559160200191906001019062000118565b5b50905062000145919062000149565b5090565b5b80821115620001645760008160009055506001016200014a565b5090565b7f4e487b7100000000000000000000000000000000000000000000000000000000600052602260045260246000fd5b60006002820490506001821680620001b057607f821691505b60208210811415620001c757620001c662000168565b5b50919050565b61262e80620001dd6000396000f3fe608060405234801561001057600080fd5b50600436106101005760003560e01c806370a0823111610097578063a9059cbb11610066578063a9059cbb146102d1578063b88d4fde146102ed578063c87b56dd14610309578063e985e9c51461033957610100565b806370a08231146102375780638363f8ae1461026757806395d89b4114610297578063a22cb465146102b557610100565b806323b872dd116100d357806323b872dd1461019f57806342842e0e146101bb5780636352211e146101d75780636a6278421461020757610100565b806301ffc9a71461010557806306fdde0314610135578063081812fc14610153578063095ea7b314610183575b600080fd5b61011f600480360381019061011a919061188e565b610369565b60405161012c91906118d6565b60405180910390f35b61013d61044b565b60405161014a919061198a565b60405180910390f35b61016d600480360381019061016891906119e2565b6104dd565b60405161017a9190611a50565b60405180910390f35b61019d60048036038101906101989190611a97565b610523565b005b6101b960048036038101906101b49190611ad7565b61063b565b005b6101d560048036038101906101d09190611ad7565b61069b565b005b6101f160048036038101906101ec91906119e2565b6106bb565b6040516101fe9190611a50565b60405180910390f35b610221600480360381019061021c9190611b2a565b610742565b60405161022e9190611b66565b60405180910390f35b610251600480360381019061024c9190611b2a565b61076f565b60405161025e9190611b66565b60405180910390f35b610281600480360381019061027c9190611b2a565b610827565b60405161028e9190611b66565b60405180910390f35b61029f61082e565b6040516102ac919061198a565b60405180910390f35b6102cf60048036038101906102ca9190611bad565b6108c0565b005b6102eb60048036038101906102e69190611a97565b6108d6565b005b61030760048036038101906103029190611d22565b61092e565b005b610323600480360381019061031e91906119e2565b610990565b604051610330919061198a565b60405180910390f35b610353600480360381019061034e9190611da5565b6109f8565b60405161036091906118d6565b60405180910390f35b60007f80ac58cd000000000000000000000000000000000000000000000000000000007bffffffffffffffffffffffffffffffffffffffffffffffffffffffff1916827bffffffffffffffffffffffffffffffffffffffffffffffffffffffff1916148061043457507f5b5e139f000000000000000000000000000000000000000000000000000000007bffffffffffffffffffffffffffffffffffffffffffffffffffffffff1916827bffffffffffffffffffffffffffffffffffffffffffffffffffffffff1916145b80610444575061044382610a8c565b5b9050919050565b60606000805461045a90611e14565b80601f016020809104026020016040519081016040528092919081815260200182805461048690611e14565b80156104d35780601f106104a8576101008083540402835291602001916104d3565b820191906000526020600020905b8154815290600101906020018083116104b657829003601f168201915b5050505050905090565b60006104e882610af6565b6004600083815260200190815260200160002060009054906101000a900473ffffffffffffffffffffffffffffffffffffffff169050919050565b600061052e826106bb565b90508073ffffffffffffffffffffffffffffffffffffffff168373ffffffffffffffffffffffffffffffffffffffff16141561059f576040517f08c379a000000000000000000000000000000000000000000000000000000000815260040161059690611eb8565b60405180910390fd5b8073ffffffffffffffffffffffffffffffffffffffff166105be610b41565b73ffffffffffffffffffffffffffffffffffffffff1614806105ed57506105ec816105e7610b41565b6109f8565b5b61062c576040517f08c379a000000000000000000000000000000000000000000000000000000000815260040161062390611f4a565b60405180910390fd5b6106368383610b49565b505050565b61064c610646610b41565b82610c02565b61068b576040517f08c379a000000000000000000000000000000000000000000000000000000000815260040161068290611fdc565b60405180910390fd5b610696838383610c97565b505050565b6106b68383836040518060200160405280600081525061092e565b505050565b6000806106c783610f91565b9050600073ffffffffffffffffffffffffffffffffffffffff168173ffffffffffffffffffffffffffffffffffffffff161415610739576040517f08c379a000000000000000000000000000000000000000000000000000000000815260040161073090612048565b60405180910390fd5b80915050919050565b600061074e6006610fce565b600061075a6006610fe4565b90506107668382610ff2565b80915050919050565b60008073ffffffffffffffffffffffffffffffffffffffff168273ffffffffffffffffffffffffffffffffffffffff1614156107e0576040517f08c379a00000000000000000000000000000000000000000000000000000000081526004016107d7906120da565b60405180910390fd5b600360008373ffffffffffffffffffffffffffffffffffffffff1673ffffffffffffffffffffffffffffffffffffffff168152602001908152602001600020549050919050565b6000919050565b60606001805461083d90611e14565b80601f016020809104026020016040519081016040528092919081815260200182805461086990611e14565b80156108b65780601f1061088b576101008083540402835291602001916108b6565b820191906000526020600020905b81548152906001019060200180831161089957829003601f168201915b5050505050905090565b6108d26108cb610b41565b8383611210565b5050565b6108e03382610c02565b61091f576040517f08c379a00000000000000000000000000000000000000000000000000000000081526004016109169061216c565b60405180910390fd5b61092a338383610c97565b5050565b61093f610939610b41565b83610c02565b61097e576040517f08c379a000000000000000000000000000000000000000000000000000000000815260040161097590611fdc565b60405180910390fd5b61098a8484848461137d565b50505050565b606061099b82610af6565b60006109a56113d9565b905060008151116109c557604051806020016040528060008152506109f0565b806109cf846113f0565b6040516020016109e09291906121c8565b6040516020818303038152906040525b915050919050565b6000600560008473ffffffffffffffffffffffffffffffffffffffff1673ffffffffffffffffffffffffffffffffffffffff16815260200190815260200160002060008373ffffffffffffffffffffffffffffffffffffffff1673ffffffffffffffffffffffffffffffffffffffff16815260200190815260200160002060009054906101000a900460ff16905092915050565b60007f01ffc9a7000000000000000000000000000000000000000000000000000000007bffffffffffffffffffffffffffffffffffffffffffffffffffffffff1916827bffffffffffffffffffffffffffffffffffffffffffffffffffffffff1916149050919050565b610aff816114c8565b610b3e576040517f08c379a0000000000000000000000000000000000000000000000000000000008152600401610b3590612048565b60405180910390fd5b50565b600033905090565b816004600083815260200190815260200160002060006101000a81548173ffffffffffffffffffffffffffffffffffffffff021916908373ffffffffffffffffffffffffffffffffffffffff160217905550808273ffffffffffffffffffffffffffffffffffffffff16610bbc836106bb565b73ffffffffffffffffffffffffffffffffffffffff167f8c5be1e5ebec7d5bd14f71427d1e84f3dd0314c0f7b2291e5b200ac8c7c3b92560405160405180910390a45050565b600080610c0e836106bb565b90508073ffffffffffffffffffffffffffffffffffffffff168473ffffffffffffffffffffffffffffffffffffffff161480610c505750610c4f81856109f8565b5b80610c8e57508373ffffffffffffffffffffffffffffffffffffffff16610c76846104dd565b73ffffffffffffffffffffffffffffffffffffffff16145b91505092915050565b8273ffffffffffffffffffffffffffffffffffffffff16610cb7826106bb565b73ffffffffffffffffffffffffffffffffffffffff1614610d0d576040517f08c379a0000000000000000000000000000000000000000000000000000000008152600401610d049061225e565b60405180910390fd5b600073ffffffffffffffffffffffffffffffffffffffff168273ffffffffffffffffffffffffffffffffffffffff161415610d7d576040517f08c379a0000000000000000000000000000000000000000000000000000000008152600401610d74906122f0565b60405180910390fd5b610d8a8383836001611509565b8273ffffffffffffffffffffffffffffffffffffffff16610daa826106bb565b73ffffffffffffffffffffffffffffffffffffffff1614610e00576040517f08c379a0000000000000000000000000000000000000000000000000000000008152600401610df79061225e565b60405180910390fd5b6004600082815260200190815260200160002060006101000a81549073ffffffffffffffffffffffffffffffffffffffff02191690556001600360008573ffffffffffffffffffffffffffffffffffffffff1673ffffffffffffffffffffffffffffffffffffffff168152602001908152602001600020600082825403925050819055506001600360008473ffffffffffffffffffffffffffffffffffffffff1673ffffffffffffffffffffffffffffffffffffffff16815260200190815260200160002060008282540192505081905550816002600083815260200190815260200160002060006101000a81548173ffffffffffffffffffffffffffffffffffffffff021916908373ffffffffffffffffffffffffffffffffffffffff160217905550808273ffffffffffffffffffffffffffffffffffffffff168473ffffffffffffffffffffffffffffffffffffffff167fddf252ad1be2c89b69c2b068fc378daa952ba7f163c4a11628f55a4df523b3ef60405160405180910390a4610f8c838383600161150f565b505050565b60006002600083815260200190815260200160002060009054906101000a900473ffffffffffffffffffffffffffffffffffffffff169050919050565b6001816000016000828254019250508190555050565b600081600001549050919050565b600073ffffffffffffffffffffffffffffffffffffffff168273ffffffffffffffffffffffffffffffffffffffff161415611062576040517f08c379a00000000000000000000000000000000000000000000000000000000081526004016110599061235c565b60405180910390fd5b61106b816114c8565b156110ab576040517f08c379a00000000000000000000000000000000000000000000000000000000081526004016110a2906123c8565b60405180910390fd5b6110b9600083836001611509565b6110c2816114c8565b15611102576040517f08c379a00000000000000000000000000000000000000000000000000000000081526004016110f9906123c8565b60405180910390fd5b6001600360008473ffffffffffffffffffffffffffffffffffffffff1673ffffffffffffffffffffffffffffffffffffffff16815260200190815260200160002060008282540192505081905550816002600083815260200190815260200160002060006101000a81548173ffffffffffffffffffffffffffffffffffffffff021916908373ffffffffffffffffffffffffffffffffffffffff160217905550808273ffffffffffffffffffffffffffffffffffffffff16600073ffffffffffffffffffffffffffffffffffffffff167fddf252ad1be2c89b69c2b068fc378daa952ba7f163c4a11628f55a4df523b3ef60405160405180910390a461120c60008383600161150f565b5050565b8173ffffffffffffffffffffffffffffffffffffffff168373ffffffffffffffffffffffffffffffffffffffff16141561127f576040517f08c379a000000000000000000000000000000000000000000000000000000000815260040161127690612434565b60405180910390fd5b80600560008573ffffffffffffffffffffffffffffffffffffffff1673ffffffffffffffffffffffffffffffffffffffff16815260200190815260200160002060008473ffffffffffffffffffffffffffffffffffffffff1673ffffffffffffffffffffffffffffffffffffffff16815260200190815260200160002060006101000a81548160ff0219169083151502179055508173ffffffffffffffffffffffffffffffffffffffff168373ffffffffffffffffffffffffffffffffffffffff167f17307eab39ab6107e8899845ad3d59bd9653f200f220920489ca2b5937696c318360405161137091906118d6565b60405180910390a3505050565b611388848484610c97565b61139484848484611515565b6113d3576040517f08c379a00000000000000000000000000000000000000000000000000000000081526004016113ca906124c6565b60405180910390fd5b50505050565b606060405180602001604052806000815250905090565b6060600060016113ff846116ac565b01905060008167ffffffffffffffff81111561141e5761141d611bf7565b5b6040519080825280601f01601f1916602001820160405280156114505781602001600182028036833780820191505090505b509050600082602001820190505b6001156114bd578080600190039150507f3031323334353637383961626364656600000000000000000000000000000000600a86061a8153600a85816114a7576114a66124e6565b5b04945060008514156114b8576114bd565b61145e565b819350505050919050565b60008073ffffffffffffffffffffffffffffffffffffffff166114ea83610f91565b73ffffffffffffffffffffffffffffffffffffffff1614159050919050565b50505050565b50505050565b60006115368473ffffffffffffffffffffffffffffffffffffffff166117ff565b1561169f578373ffffffffffffffffffffffffffffffffffffffff1663150b7a0261155f610b41565b8786866040518563ffffffff1660e01b8152600401611581949392919061256a565b602060405180830381600087803b15801561159b57600080fd5b505af19250505080156115cc57506040513d601f19601f820116820180604052508101906115c991906125cb565b60015b61164f573d80600081146115fc576040519150601f19603f3d011682016040523d82523d6000602084013e611601565b606091505b50600081511415611647576040517f08c379a000000000000000000000000000000000000000000000000000000000815260040161163e906124c6565b60405180910390fd5b805181602001fd5b63150b7a0260e01b7bffffffffffffffffffffffffffffffffffffffffffffffffffffffff1916817bffffffffffffffffffffffffffffffffffffffffffffffffffffffff1916149150506116a4565b600190505b949350505050565b600080600090507a184f03e93ff9f4daa797ed6e38ed64bf6a1f010000000000000000831061170a577a184f03e93ff9f4daa797ed6e38ed64bf6a1f0100000000000000008381611700576116ff6124e6565b5b0492506040810190505b6d04ee2d6d415b85acef81000000008310611747576d04ee2d6d415b85acef8100000000838161173d5761173c6124e6565b5b0492506020810190505b662386f26fc10000831061177657662386f26fc10000838161176c5761176b6124e6565b5b0492506010810190505b6305f5e100831061179f576305f5e1008381611795576117946124e6565b5b0492506008810190505b61271083106117c45761271083816117ba576117b96124e6565b5b0492506004810190505b606483106117e757606483816117dd576117dc6124e6565b5b0492506002810190505b600a83106117f6576001810190505b80915050919050565b6000808273ffffffffffffffffffffffffffffffffffffffff163b119050919050565b6000604051905090565b600080fd5b600080fd5b60007fffffffff0000000000000000000000000000000000000000000000000000000082169050919050565b61186b81611836565b811461187657600080fd5b50565b60008135905061188881611862565b92915050565b6000602082840312156118a4576118a361182c565b5b60006118b284828501611879565b91505092915050565b60008115159050919050565b6118d0816118bb565b82525050565b60006020820190506118eb60008301846118c7565b92915050565b600081519050919050565b600082825260208201905092915050565b60005b8381101561192b578082015181840152602081019050611910565b8381111561193a576000848401525b50505050565b6000601f19601f8301169050919050565b600061195c826118f1565b61196681856118fc565b935061197681856020860161190d565b61197f81611940565b840191505092915050565b600060208201905081810360008301526119a48184611951565b905092915050565b6000819050919050565b6119bf816119ac565b81146119ca57600080fd5b50565b6000813590506119dc816119b6565b92915050565b6000602082840312156119f8576119f761182c565b5b6000611a06848285016119cd565b91505092915050565b600073ffffffffffffffffffffffffffffffffffffffff82169050919050565b6000611a3a82611a0f565b9050919050565b611a4a81611a2f565b82525050565b6000602082019050611a656000830184611a41565b92915050565b611a7481611a2f565b8114611a7f57600080fd5b50565b600081359050611a9181611a6b565b92915050565b60008060408385031215611aae57611aad61182c565b5b6000611abc85828601611a82565b9250506020611acd858286016119cd565b9150509250929050565b600080600060608486031215611af057611aef61182c565b5b6000611afe86828701611a82565b9350506020611b0f86828701611a82565b9250506040611b20868287016119cd565b9150509250925092565b600060208284031215611b4057611b3f61182c565b5b6000611b4e84828501611a82565b91505092915050565b611b60816119ac565b82525050565b6000602082019050611b7b6000830184611b57565b92915050565b611b8a816118bb565b8114611b9557600080fd5b50565b600081359050611ba781611b81565b92915050565b60008060408385031215611bc457611bc361182c565b5b6000611bd285828601611a82565b9250506020611be385828601611b98565b9150509250929050565b600080fd5b600080fd5b7f4e487b7100000000000000000000000000000000000000000000000000000000600052604160045260246000fd5b611c2f82611940565b810181811067ffffffffffffffff82111715611c4e57611c4d611bf7565b5b80604052505050565b6000611c61611822565b9050611c6d8282611c26565b919050565b600067ffffffffffffffff821115611c8d57611c8c611bf7565b5b611c9682611940565b9050602081019050919050565b82818337600083830152505050565b6000611cc5611cc084611c72565b611c57565b905082815260208101848484011115611ce157611ce0611bf2565b5b611cec848285611ca3565b509392505050565b600082601f830112611d0957611d08611bed565b5b8135611d19848260208601611cb2565b91505092915050565b60008060008060808587031215611d3c57611d3b61182c565b5b6000611d4a87828801611a82565b9450506020611d5b87828801611a82565b9350506040611d6c878288016119cd565b925050606085013567ffffffffffffffff811115611d8d57611d8c611831565b5b611d9987828801611cf4565b91505092959194509250565b60008060408385031215611dbc57611dbb61182c565b5b6000611dca85828601611a82565b9250506020611ddb85828601611a82565b9150509250929050565b7f4e487b7100000000000000000000000000000000000000000000000000000000600052602260045260246000fd5b60006002820490506001821680611e2c57607f821691505b60208210811415611e4057611e3f611de5565b5b50919050565b7f4552433732313a20617070726f76616c20746f2063757272656e74206f776e6560008201527f7200000000000000000000000000000000000000000000000000000000000000602082015250565b6000611ea26021836118fc565b9150611ead82611e46565b604082019050919050565b60006020820190508181036000830152611ed181611e95565b9050919050565b7f4552433732313a20617070726f76652063616c6c6572206973206e6f7420746f60008201527f6b656e206f776e6572206f7220617070726f76656420666f7220616c6c000000602082015250565b6000611f34603d836118fc565b9150611f3f82611ed8565b604082019050919050565b60006020820190508181036000830152611f6381611f27565b9050919050565b7f4552433732313a2063616c6c6572206973206e6f7420746f6b656e206f776e6560008201527f72206f7220617070726f76656400000000000000000000000000000000000000602082015250565b6000611fc6602d836118fc565b9150611fd182611f6a565b604082019050919050565b60006020820190508181036000830152611ff581611fb9565b9050919050565b7f4552433732313a20696e76616c696420746f6b656e2049440000000000000000600082015250565b60006120326018836118fc565b915061203d82611ffc565b602082019050919050565b6000602082019050818103600083015261206181612025565b9050919050565b7f4552433732313a2061646472657373207a65726f206973206e6f74206120766160008201527f6c6964206f776e65720000000000000000000000000000000000000000000000602082015250565b60006120c46029836118fc565b91506120cf82612068565b604082019050919050565b600060208201905081810360008301526120f3816120b7565b9050919050565b7f4552433732313a207472616e736665722063616c6c6572206973206e6f74206f60008201527f776e6572206e6f7220617070726f766564000000000000000000000000000000602082015250565b60006121566031836118fc565b9150612161826120fa565b604082019050919050565b6000602082019050818103600083015261218581612149565b9050919050565b600081905092915050565b60006121a2826118f1565b6121ac818561218c565b93506121bc81856020860161190d565b80840191505092915050565b60006121d48285612197565b91506121e08284612197565b91508190509392505050565b7f4552433732313a207472616e736665722066726f6d20696e636f72726563742060008201527f6f776e6572000000000000000000000000000000000000000000000000000000602082015250565b60006122486025836118fc565b9150612253826121ec565b604082019050919050565b600060208201905081810360008301526122778161223b565b9050919050565b7f4552433732313a207472616e7366657220746f20746865207a65726f2061646460008201527f7265737300000000000000000000000000000000000000000000000000000000602082015250565b60006122da6024836118fc565b91506122e58261227e565b604082019050919050565b60006020820190508181036000830152612309816122cd565b9050919050565b7f4552433732313a206d696e7420746f20746865207a65726f2061646472657373600082015250565b60006123466020836118fc565b915061235182612310565b602082019050919050565b6000602082019050818103600083015261237581612339565b9050919050565b7f4552433732313a20746f6b656e20616c7265616479206d696e74656400000000600082015250565b60006123b2601c836118fc565b91506123bd8261237c565b602082019050919050565b600060208201905081810360008301526123e1816123a5565b9050919050565b7f4552433732313a20617070726f766520746f2063616c6c657200000000000000600082015250565b600061241e6019836118fc565b9150612429826123e8565b602082019050919050565b6000602082019050818103600083015261244d81612411565b9050919050565b7f4552433732313a207472616e7366657220746f206e6f6e20455243373231526560008201527f63656976657220696d706c656d656e7465720000000000000000000000000000602082015250565b60006124b06032836118fc565b91506124bb82612454565b604082019050919050565b600060208201905081810360008301526124df816124a3565b9050919050565b7f4e487b7100000000000000000000000000000000000000000000000000000000600052601260045260246000fd5b600081519050919050565b600082825260208201905092915050565b600061253c82612515565b6125468185612520565b935061255681856020860161190d565b61255f81611940565b840191505092915050565b600060808201905061257f6000830187611a41565b61258c6020830186611a41565b6125996040830185611b57565b81810360608301526125ab8184612531565b905095945050505050565b6000815190506125c581611862565b92915050565b6000602082840312156125e1576125e061182c565b5b60006125ef848285016125b6565b9150509291505056fea26469706673582212209023665fdde56a74acfd02b61b8f0497db80cc2ace6fce62ceae97e2f93cb57964736f6c63430008090033",
  "linkReferences": {},
  "deployedLinkReferences": {}
}